{
  "contractName": "Dagt",
  "abi": [
    {
      "constant": true,
      "inputs": [],
      "name": "mintingFinished",
      "outputs": [
        {
          "name": "",
          "type": "bool"
        }
      ],
      "payable": false,
      "stateMutability": "view",
      "type": "function"
    },
    {
      "constant": true,
      "inputs": [],
      "name": "name",
      "outputs": [
        {
          "name": "",
          "type": "string"
        }
      ],
      "payable": false,
      "stateMutability": "view",
      "type": "function"
    },
    {
      "constant": true,
      "inputs": [],
      "name": "totalSupply",
      "outputs": [
        {
          "name": "",
          "type": "uint256"
        }
      ],
      "payable": false,
      "stateMutability": "view",
      "type": "function"
    },
    {
      "constant": true,
      "inputs": [],
      "name": "decimals",
      "outputs": [
        {
          "name": "",
          "type": "uint8"
        }
      ],
      "payable": false,
      "stateMutability": "view",
      "type": "function"
    },
    {
      "constant": false,
      "inputs": [
        {
          "name": "_to",
          "type": "address"
        },
        {
          "name": "_amount",
          "type": "uint256"
        }
      ],
      "name": "mint",
      "outputs": [
        {
          "name": "",
          "type": "bool"
        }
      ],
      "payable": false,
      "stateMutability": "nonpayable",
      "type": "function"
    },
    {
      "constant": true,
      "inputs": [],
      "name": "version",
      "outputs": [
        {
          "name": "",
          "type": "string"
        }
      ],
      "payable": false,
      "stateMutability": "view",
      "type": "function"
    },
    {
      "constant": false,
      "inputs": [
        {
          "name": "_spender",
          "type": "address"
        },
        {
          "name": "_subtractedValue",
          "type": "uint256"
        }
      ],
      "name": "decreaseApproval",
      "outputs": [
        {
          "name": "",
          "type": "bool"
        }
      ],
      "payable": false,
      "stateMutability": "nonpayable",
      "type": "function"
    },
    {
      "constant": true,
      "inputs": [
        {
          "name": "_owner",
          "type": "address"
        }
      ],
      "name": "balanceOf",
      "outputs": [
        {
          "name": "balance",
          "type": "uint256"
        }
      ],
      "payable": false,
      "stateMutability": "view",
      "type": "function"
    },
    {
      "constant": false,
      "inputs": [],
      "name": "finishMinting",
      "outputs": [
        {
          "name": "",
          "type": "bool"
        }
      ],
      "payable": false,
      "stateMutability": "nonpayable",
      "type": "function"
    },
    {
      "constant": true,
      "inputs": [],
      "name": "owner",
      "outputs": [
        {
          "name": "",
          "type": "address"
        }
      ],
      "payable": false,
      "stateMutability": "view",
      "type": "function"
    },
    {
      "constant": true,
      "inputs": [],
      "name": "symbol",
      "outputs": [
        {
          "name": "",
          "type": "string"
        }
      ],
      "payable": false,
      "stateMutability": "view",
      "type": "function"
    },
    {
      "constant": false,
      "inputs": [
        {
          "name": "_spender",
          "type": "address"
        },
        {
          "name": "_addedValue",
          "type": "uint256"
        }
      ],
      "name": "increaseApproval",
      "outputs": [
        {
          "name": "",
          "type": "bool"
        }
      ],
      "payable": false,
      "stateMutability": "nonpayable",
      "type": "function"
    },
    {
      "constant": true,
      "inputs": [
        {
          "name": "_owner",
          "type": "address"
        },
        {
          "name": "_spender",
          "type": "address"
        }
      ],
      "name": "allowance",
      "outputs": [
        {
          "name": "",
          "type": "uint256"
        }
      ],
      "payable": false,
      "stateMutability": "view",
      "type": "function"
    },
    {
      "constant": false,
      "inputs": [
        {
          "name": "newOwner",
          "type": "address"
        }
      ],
      "name": "transferOwnership",
      "outputs": [],
      "payable": false,
      "stateMutability": "nonpayable",
      "type": "function"
    },
    {
      "anonymous": false,
      "inputs": [
        {
          "indexed": true,
          "name": "to",
          "type": "address"
        },
        {
          "indexed": false,
          "name": "amount",
          "type": "uint256"
        }
      ],
      "name": "Mint",
      "type": "event"
    },
    {
      "anonymous": false,
      "inputs": [],
      "name": "MintFinished",
      "type": "event"
    },
    {
      "anonymous": false,
      "inputs": [
        {
          "indexed": true,
          "name": "previousOwner",
          "type": "address"
        },
        {
          "indexed": true,
          "name": "newOwner",
          "type": "address"
        }
      ],
      "name": "OwnershipTransferred",
      "type": "event"
    },
    {
      "anonymous": false,
      "inputs": [
        {
          "indexed": true,
          "name": "owner",
          "type": "address"
        },
        {
          "indexed": true,
          "name": "spender",
          "type": "address"
        },
        {
          "indexed": false,
          "name": "value",
          "type": "uint256"
        }
      ],
      "name": "Approval",
      "type": "event"
    },
    {
      "anonymous": false,
      "inputs": [
        {
          "indexed": true,
          "name": "from",
          "type": "address"
        },
        {
          "indexed": true,
          "name": "to",
          "type": "address"
        },
        {
          "indexed": false,
          "name": "value",
          "type": "uint256"
        }
      ],
      "name": "Transfer",
      "type": "event"
    },
    {
      "constant": false,
      "inputs": [
        {
          "name": "_spender",
          "type": "address"
        },
        {
          "name": "_value",
          "type": "uint256"
        }
      ],
      "name": "approve",
      "outputs": [
        {
          "name": "",
          "type": "bool"
        }
      ],
      "payable": false,
      "stateMutability": "nonpayable",
      "type": "function"
    },
    {
      "constant": false,
      "inputs": [
        {
          "name": "_to",
          "type": "address"
        },
        {
          "name": "_value",
          "type": "uint256"
        }
      ],
      "name": "transfer",
      "outputs": [
        {
          "name": "",
          "type": "bool"
        }
      ],
      "payable": false,
      "stateMutability": "nonpayable",
      "type": "function"
    },
    {
      "constant": false,
      "inputs": [
        {
          "name": "_from",
          "type": "address"
        },
        {
          "name": "_to",
          "type": "address"
        },
        {
          "name": "_value",
          "type": "uint256"
        }
      ],
      "name": "transferFrom",
      "outputs": [
        {
          "name": "",
          "type": "bool"
        }
      ],
      "payable": false,
      "stateMutability": "nonpayable",
      "type": "function"
    }
  ],
  "bytecode": "0x606060405260038054600160a860020a03191633600160a060020a0316179055610c4d8061002e6000396000f3006060604052600436106100f05763ffffffff7c010000000000000000000000000000000000000000000000000000000060003504166305d2035b81146100f557806306fdde031461011c578063095ea7b3146101a657806318160ddd146101c857806323b872dd146101ed578063313ce5671461021557806340c10f191461023e57806354fd4d5014610260578063661884631461027357806370a08231146102955780637d64bcb4146102b45780638da5cb5b146102c757806395d89b41146102f6578063a9059cbb14610309578063d73dd6231461032b578063dd62ed3e1461034d578063f2fde38b14610372575b600080fd5b341561010057600080fd5b610108610393565b604051901515815260200160405180910390f35b341561012757600080fd5b61012f6103a3565b60405160208082528190810183818151815260200191508051906020019080838360005b8381101561016b578082015183820152602001610153565b50505050905090810190601f1680156101985780820380516001836020036101000a031916815260200191505b509250505060405180910390f35b34156101b157600080fd5b610108600160a060020a03600435166024356103da565b34156101d357600080fd5b6101db610409565b60405190815260200160405180910390f35b34156101f857600080fd5b610108600160a060020a036004358116906024351660443561040f565b341561022057600080fd5b610228610440565b60405160ff909116815260200160405180910390f35b341561024957600080fd5b610108600160a060020a0360043516602435610445565b341561026b57600080fd5b61012f610553565b341561027e57600080fd5b610108600160a060020a036004351660243561058a565b34156102a057600080fd5b6101db600160a060020a0360043516610684565b34156102bf57600080fd5b61010861069f565b34156102d257600080fd5b6102da61072a565b604051600160a060020a03909116815260200160405180910390f35b341561030157600080fd5b61012f610739565b341561031457600080fd5b610108600160a060020a0360043516602435610770565b341561033657600080fd5b610108600160a060020a0360043516602435610798565b341561035857600080fd5b6101db600160a060020a036004358116906024351661083c565b341561037d57600080fd5b610391600160a060020a0360043516610867565b005b60035460a060020a900460ff1681565b60408051908101604052601481527f444147542043727970746f20506c6174666f726d000000000000000000000000602082015281565b60035460009060a060020a900460ff1615156001146103f857600080fd5b6104028383610902565b9392505050565b60015490565b60035460009060a060020a900460ff16151560011461042d57600080fd5b61043884848461096e565b949350505050565b601281565b60035460009033600160a060020a0390811691161461046357600080fd5b60035460a060020a900460ff161561047a57600080fd5b60015461048d908363ffffffff610aee16565b600155600160a060020a0383166000908152602081905260409020546104b9908363ffffffff610aee16565b600160a060020a0384166000818152602081905260409081902092909255907f0f6798a560793a54c3bcfe86a93cde1e73087d944c0ea20544137d41213968859084905190815260200160405180910390a2600160a060020a03831660007fddf252ad1be2c89b69c2b068fc378daa952ba7f163c4a11628f55a4df523b3ef8460405190815260200160405180910390a350600192915050565b60408051908101604052600381527f312e300000000000000000000000000000000000000000000000000000000000602082015281565b600160a060020a033381166000908152600260209081526040808320938616835292905290812054808311156105e757600160a060020a03338116600090815260026020908152604080832093881683529290529081205561061e565b6105f7818463ffffffff610afd16565b600160a060020a033381166000908152600260209081526040808320938916835292905220555b600160a060020a0333811660008181526002602090815260408083209489168084529490915290819020547f8c5be1e5ebec7d5bd14f71427d1e84f3dd0314c0f7b2291e5b200ac8c7c3b925915190815260200160405180910390a35060019392505050565b600160a060020a031660009081526020819052604090205490565b60035460009033600160a060020a039081169116146106bd57600080fd5b60035460a060020a900460ff16156106d457600080fd5b6003805474ff0000000000000000000000000000000000000000191660a060020a1790557fae5184fba832cb2b1f702aca6117b8d265eaf03ad33eb133f19dde0f5920fa0860405160405180910390a150600190565b600354600160a060020a031681565b60408051908101604052600481527f4441475400000000000000000000000000000000000000000000000000000000602082015281565b60035460009060a060020a900460ff16151560011461078e57600080fd5b6104028383610b0f565b600160a060020a0333811660009081526002602090815260408083209386168352929052908120546107d0908363ffffffff610aee16565b600160a060020a0333811660008181526002602090815260408083209489168084529490915290819020849055919290917f8c5be1e5ebec7d5bd14f71427d1e84f3dd0314c0f7b2291e5b200ac8c7c3b92591905190815260200160405180910390a350600192915050565b600160a060020a03918216600090815260026020908152604080832093909416825291909152205490565b60035433600160a060020a0390811691161461088257600080fd5b600160a060020a038116151561089757600080fd5b600354600160a060020a0380831691167f8be0079c531659141344cd1fd0a4f28419497f9722a3daafe3b4186f6b6457e060405160405180910390a36003805473ffffffffffffffffffffffffffffffffffffffff1916600160a060020a0392909216919091179055565b600160a060020a03338116600081815260026020908152604080832094871680845294909152808220859055909291907f8c5be1e5ebec7d5bd14f71427d1e84f3dd0314c0f7b2291e5b200ac8c7c3b9259085905190815260200160405180910390a350600192915050565b6000600160a060020a038316151561098557600080fd5b600160a060020a0384166000908152602081905260409020548211156109aa57600080fd5b600160a060020a03808516600090815260026020908152604080832033909416835292905220548211156109dd57600080fd5b600160a060020a038416600090815260208190526040902054610a06908363ffffffff610afd16565b600160a060020a038086166000908152602081905260408082209390935590851681522054610a3b908363ffffffff610aee16565b600160a060020a0380851660009081526020818152604080832094909455878316825260028152838220339093168252919091522054610a81908363ffffffff610afd16565b600160a060020a03808616600081815260026020908152604080832033861684529091529081902093909355908516917fddf252ad1be2c89b69c2b068fc378daa952ba7f163c4a11628f55a4df523b3ef9085905190815260200160405180910390a35060019392505050565b60008282018381101561040257fe5b600082821115610b0957fe5b50900390565b6000600160a060020a0383161515610b2657600080fd5b600160a060020a033316600090815260208190526040902054821115610b4b57600080fd5b600160a060020a033316600090815260208190526040902054610b74908363ffffffff610afd16565b600160a060020a033381166000908152602081905260408082209390935590851681522054610ba9908363ffffffff610aee16565b60008085600160a060020a0316600160a060020a031681526020019081526020016000208190555082600160a060020a031633600160a060020a03167fddf252ad1be2c89b69c2b068fc378daa952ba7f163c4a11628f55a4df523b3ef8460405190815260200160405180910390a3506001929150505600a165627a7a72305820562e13a4b2034ba73b5c906eef2d8c94bfa17d779e9c4026069b966358acb7e00029",
  "source": "pragma solidity ^0.4.17;\n\nimport \"zeppelin-solidity/contracts/token/ERC20/MintableToken.sol\";\n\ncontract Dagt is MintableToken {\n    string public constant version = \"1.0\";\n    string public constant name = \"DAGT Crypto Platform\";\n    string public constant symbol = \"DAGT\";\n    uint8 public constant decimals = 18;\n\n    modifier onlyMintingFinished() {\n        require(mintingFinished == true);\n        _;\n    }\n    /// @dev Same ERC20 behavior, but require the token to be unlocked\n    /// @param _spender address The address which will spend the funds.\n    /// @param _value uint256 The amount of tokens to be spent.\n    function approve(address _spender, uint256 _value) public onlyMintingFinished returns (bool) {\n        return super.approve(_spender, _value);\n    }\n\n    /// @dev Same ERC20 behavior, but require the token to be unlocked\n    /// @param _to address The address to transfer to.\n    /// @param _value uint256 The amount to be transferred.\n    function transfer(address _to, uint256 _value) public onlyMintingFinished returns (bool) {\n        return super.transfer(_to, _value);\n    }\n\n    /// @dev Same ERC20 behavior, but require the token to be unlocked\n    /// @param _from address The address which you want to send tokens from.\n    /// @param _to address The address which you want to transfer to.\n    /// @param _value uint256 the amount of tokens to be transferred.\n    function transferFrom(address _from, address _to, uint256 _value) public onlyMintingFinished returns (bool) {\n        return super.transferFrom(_from, _to, _value);\n    }\n\n}",
  "sourcePath": "/Users/leo/Projects/github/dagt/contracts/Dagt.sol",
  "compiler": {
    "name": "solc",
    "version": "0.4.19+commit.c4cbbb05.Emscripten.clang"
  },
  "schemaVersion": "2.0.0",
  "updatedAt": "2018-03-21T08:24:52.231Z"
}