{
  "contractName": "DagtCrowdsale",
  "abi": [
    {
      "constant": true,
      "inputs": [
        {
          "name": "",
          "type": "address"
        }
      ],
      "name": "beneficiaries",
      "outputs": [
        {
          "name": "",
          "type": "uint256"
        }
      ],
      "payable": false,
      "stateMutability": "view",
      "type": "function"
    },
    {
      "constant": true,
      "inputs": [],
      "name": "hasClosed",
      "outputs": [
        {
          "name": "",
          "type": "bool"
        }
      ],
      "payable": false,
      "stateMutability": "view",
      "type": "function"
    },
    {
      "constant": true,
      "inputs": [
        {
          "name": "",
          "type": "uint256"
        }
      ],
      "name": "BONUS_AMOUNTS",
      "outputs": [
        {
          "name": "",
          "type": "uint32"
        }
      ],
      "payable": false,
      "stateMutability": "view",
      "type": "function"
    },
    {
      "constant": true,
      "inputs": [
        {
          "name": "",
          "type": "uint256"
        }
      ],
      "name": "BONUS_AMOUNTS_VALUES",
      "outputs": [
        {
          "name": "",
          "type": "uint32"
        }
      ],
      "payable": false,
      "stateMutability": "view",
      "type": "function"
    },
    {
      "constant": true,
      "inputs": [],
      "name": "rate",
      "outputs": [
        {
          "name": "",
          "type": "uint256"
        }
      ],
      "payable": false,
      "stateMutability": "view",
      "type": "function"
    },
    {
      "constant": true,
      "inputs": [],
      "name": "cap",
      "outputs": [
        {
          "name": "",
          "type": "uint256"
        }
      ],
      "payable": false,
      "stateMutability": "view",
      "type": "function"
    },
    {
      "constant": true,
      "inputs": [],
      "name": "weiRaised",
      "outputs": [
        {
          "name": "",
          "type": "uint256"
        }
      ],
      "payable": false,
      "stateMutability": "view",
      "type": "function"
    },
    {
      "constant": true,
      "inputs": [],
      "name": "closingTime",
      "outputs": [
        {
          "name": "",
          "type": "uint256"
        }
      ],
      "payable": false,
      "stateMutability": "view",
      "type": "function"
    },
    {
      "constant": false,
      "inputs": [],
      "name": "finalize",
      "outputs": [],
      "payable": false,
      "stateMutability": "nonpayable",
      "type": "function"
    },
    {
      "constant": true,
      "inputs": [],
      "name": "capReached",
      "outputs": [
        {
          "name": "",
          "type": "bool"
        }
      ],
      "payable": false,
      "stateMutability": "view",
      "type": "function"
    },
    {
      "constant": true,
      "inputs": [],
      "name": "wallet",
      "outputs": [
        {
          "name": "",
          "type": "address"
        }
      ],
      "payable": false,
      "stateMutability": "view",
      "type": "function"
    },
    {
      "constant": true,
      "inputs": [
        {
          "name": "",
          "type": "uint256"
        }
      ],
      "name": "BONUS_TIMES",
      "outputs": [
        {
          "name": "",
          "type": "uint32"
        }
      ],
      "payable": false,
      "stateMutability": "view",
      "type": "function"
    },
    {
      "constant": true,
      "inputs": [],
      "name": "remainingTokensWallet",
      "outputs": [
        {
          "name": "",
          "type": "address"
        }
      ],
      "payable": false,
      "stateMutability": "view",
      "type": "function"
    },
    {
      "constant": false,
      "inputs": [
        {
          "name": "_beneficiary",
          "type": "address"
        }
      ],
      "name": "removeFromWhitelist",
      "outputs": [],
      "payable": false,
      "stateMutability": "nonpayable",
      "type": "function"
    },
    {
      "constant": false,
      "inputs": [
        {
          "name": "_beneficiaries",
          "type": "address[]"
        }
      ],
      "name": "addManyToWhitelist",
      "outputs": [],
      "payable": false,
      "stateMutability": "nonpayable",
      "type": "function"
    },
    {
      "constant": true,
      "inputs": [],
      "name": "isFinalized",
      "outputs": [
        {
          "name": "",
          "type": "bool"
        }
      ],
      "payable": false,
      "stateMutability": "view",
      "type": "function"
    },
    {
      "constant": true,
      "inputs": [],
      "name": "owner",
      "outputs": [
        {
          "name": "",
          "type": "address"
        }
      ],
      "payable": false,
      "stateMutability": "view",
      "type": "function"
    },
    {
      "constant": true,
      "inputs": [
        {
          "name": "",
          "type": "address"
        }
      ],
      "name": "whitelist",
      "outputs": [
        {
          "name": "",
          "type": "bool"
        }
      ],
      "payable": false,
      "stateMutability": "view",
      "type": "function"
    },
    {
      "constant": true,
      "inputs": [],
      "name": "TOKEN_UNIT",
      "outputs": [
        {
          "name": "",
          "type": "uint256"
        }
      ],
      "payable": false,
      "stateMutability": "view",
      "type": "function"
    },
    {
      "constant": true,
      "inputs": [],
      "name": "openingTime",
      "outputs": [
        {
          "name": "",
          "type": "uint256"
        }
      ],
      "payable": false,
      "stateMutability": "view",
      "type": "function"
    },
    {
      "constant": true,
      "inputs": [
        {
          "name": "",
          "type": "uint256"
        }
      ],
      "name": "BONUS_TIMES_VALUES",
      "outputs": [
        {
          "name": "",
          "type": "uint32"
        }
      ],
      "payable": false,
      "stateMutability": "view",
      "type": "function"
    },
    {
      "constant": false,
      "inputs": [
        {
          "name": "_beneficiary",
          "type": "address"
        }
      ],
      "name": "addToWhitelist",
      "outputs": [],
      "payable": false,
      "stateMutability": "nonpayable",
      "type": "function"
    },
    {
      "constant": false,
      "inputs": [
        {
          "name": "_beneficiary",
          "type": "address"
        }
      ],
      "name": "buyTokens",
      "outputs": [],
      "payable": true,
      "stateMutability": "payable",
      "type": "function"
    },
    {
      "constant": false,
      "inputs": [
        {
          "name": "newOwner",
          "type": "address"
        }
      ],
      "name": "transferOwnership",
      "outputs": [],
      "payable": false,
      "stateMutability": "nonpayable",
      "type": "function"
    },
    {
      "constant": true,
      "inputs": [],
      "name": "MAX_TOKENS",
      "outputs": [
        {
          "name": "",
          "type": "uint256"
        }
      ],
      "payable": false,
      "stateMutability": "view",
      "type": "function"
    },
    {
      "constant": true,
      "inputs": [],
      "name": "token",
      "outputs": [
        {
          "name": "",
          "type": "address"
        }
      ],
      "payable": false,
      "stateMutability": "view",
      "type": "function"
    },
    {
      "inputs": [
        {
          "name": "_openingTime",
          "type": "uint256"
        },
        {
          "name": "_closingTime",
          "type": "uint256"
        },
        {
          "name": "_rate",
          "type": "uint256"
        },
        {
          "name": "_wallet",
          "type": "address"
        },
        {
          "name": "_remainingTokensWallet",
          "type": "address"
        },
        {
          "name": "_cap",
          "type": "uint256"
        },
        {
          "name": "_token",
          "type": "address"
        }
      ],
      "payable": false,
      "stateMutability": "nonpayable",
      "type": "constructor"
    },
    {
      "payable": true,
      "stateMutability": "payable",
      "type": "fallback"
    },
    {
      "anonymous": false,
      "inputs": [],
      "name": "Finalized",
      "type": "event"
    },
    {
      "anonymous": false,
      "inputs": [
        {
          "indexed": true,
          "name": "previousOwner",
          "type": "address"
        },
        {
          "indexed": true,
          "name": "newOwner",
          "type": "address"
        }
      ],
      "name": "OwnershipTransferred",
      "type": "event"
    },
    {
      "anonymous": false,
      "inputs": [
        {
          "indexed": true,
          "name": "purchaser",
          "type": "address"
        },
        {
          "indexed": true,
          "name": "beneficiary",
          "type": "address"
        },
        {
          "indexed": false,
          "name": "value",
          "type": "uint256"
        },
        {
          "indexed": false,
          "name": "amount",
          "type": "uint256"
        }
      ],
      "name": "TokenPurchase",
      "type": "event"
    },
    {
      "constant": true,
      "inputs": [
        {
          "name": "ethValue",
          "type": "uint256"
        },
        {
          "name": "rate",
          "type": "uint256"
        }
      ],
      "name": "computeTokens",
      "outputs": [
        {
          "name": "",
          "type": "uint256"
        }
      ],
      "payable": false,
      "stateMutability": "view",
      "type": "function"
    },
    {
      "constant": true,
      "inputs": [
        {
          "name": "rate",
          "type": "uint256"
        }
      ],
      "name": "computeTimeBonus",
      "outputs": [
        {
          "name": "",
          "type": "uint256"
        }
      ],
      "payable": false,
      "stateMutability": "view",
      "type": "function"
    },
    {
      "constant": true,
      "inputs": [
        {
          "name": "ethValue",
          "type": "uint256"
        }
      ],
      "name": "computeAmountBonus",
      "outputs": [
        {
          "name": "",
          "type": "uint256"
        }
      ],
      "payable": false,
      "stateMutability": "view",
      "type": "function"
    },
    {
      "constant": true,
      "inputs": [],
      "name": "bonusesForTimesCount",
      "outputs": [
        {
          "name": "",
          "type": "uint256"
        }
      ],
      "payable": false,
      "stateMutability": "view",
      "type": "function"
    },
    {
      "constant": false,
      "inputs": [
        {
          "name": "times",
          "type": "uint32[]"
        },
        {
          "name": "values",
          "type": "uint32[]"
        }
      ],
      "name": "setBonusesForTimes",
      "outputs": [],
      "payable": false,
      "stateMutability": "nonpayable",
      "type": "function"
    },
    {
      "constant": true,
      "inputs": [],
      "name": "bonusesForAmountsCount",
      "outputs": [
        {
          "name": "",
          "type": "uint256"
        }
      ],
      "payable": false,
      "stateMutability": "view",
      "type": "function"
    },
    {
      "constant": false,
      "inputs": [
        {
          "name": "amounts",
          "type": "uint32[]"
        },
        {
          "name": "values",
          "type": "uint32[]"
        }
      ],
      "name": "setBonusesForAmounts",
      "outputs": [],
      "payable": false,
      "stateMutability": "nonpayable",
      "type": "function"
    }
  ],
  "bytecode": "0x60606040526007805460a060020a60ff0219169055341561001f57600080fd5b60405160e08061126383398101604052808051919060200180519190602001805191906020018051919060200180519190602001805191906020018051915087905086838787856000831161007357600080fd5b600160a060020a038216151561008857600080fd5b600160a060020a038116151561009d57600080fd5b60029290925560018054600160a060020a03928316600160a060020a0319918216179091556000805492909316911617815581116100da57600080fd5b600455428210156100ea57600080fd5b818110156100f757600080fd5b60059190915560065560078054600160a060020a03191633600160a060020a03908116919091179091558316151561012e57600080fd5b505060098054600160a060020a03909216600160a060020a0319909216919091179055505050506110ff806101646000396000f3006060604052600436106101875763ffffffff60e060020a6000350416630156773981146101925780630a0d5509146101c35780630afc0a59146101d95780631515bc2b146101f257806319a1f592146102195780631d1eda5e146102485780631df0187b146102d75780631e05e0c8146102ed5780632c4e722e14610300578063355274ea146103135780634042b66f146103265780634b6753bc146103395780634bb278f31461034c5780634f9359451461035f578063521eb2731461037257806353da0c7e146103a15780635750abfa146103b4578063737aa5a0146103ca578063816273f6146103dd578063835f6775146103f35780638ab1d681146104825780638c10671c146104a15780638d4e4083146104bf5780638da5cb5b146104d25780639b19251a146104e5578063a5c9cd8214610504578063b7a8807c14610517578063e0f74cde1461052a578063e43252d714610540578063ec8ac4d81461055f578063f2fde38b14610573578063f47c84c514610592578063fc0c546a146105a5575b610190336105b8565b005b341561019d57600080fd5b6101b1600160a060020a0360043516610660565b60405190815260200160405180910390f35b34156101ce57600080fd5b6101b1600435610672565b34156101e457600080fd5b6101b160043560243561074f565b34156101fd57600080fd5b6102056107ab565b604051901515815260200160405180910390f35b341561022457600080fd5b61022f6004356107b4565b60405163ffffffff909116815260200160405180910390f35b341561025357600080fd5b6101906004602481358181019083013580602081810201604051908101604052809392919081815260200183836020028082843782019150505050505091908035906020019082018035906020019080806020026020016040519081016040528093929190818152602001838360200280828437509496506107ec95505050505050565b34156102e257600080fd5b61022f6004356108a2565b34156102f857600080fd5b6101b16108b0565b341561030b57600080fd5b6101b16108b6565b341561031e57600080fd5b6101b16108bc565b341561033157600080fd5b6101b16108c2565b341561034457600080fd5b6101b16108c8565b341561035757600080fd5b6101906108ce565b341561036a57600080fd5b61020561098f565b341561037d57600080fd5b61038561099a565b604051600160a060020a03909116815260200160405180910390f35b34156103ac57600080fd5b6101b16109a9565b34156103bf57600080fd5b61022f6004356109af565b34156103d557600080fd5b6103856109bd565b34156103e857600080fd5b6101b16004356109cc565b34156103fe57600080fd5b610190600460248135818101908301358060208181020160405190810160405280939291908181526020018383602002808284378201915050505050509190803590602001908201803590602001908080602002602001604051908101604052809392919081815260200183836020028082843750949650610a6595505050505050565b341561048d57600080fd5b610190600160a060020a0360043516610b15565b34156104ac57600080fd5b6101906004803560248101910135610b51565b34156104ca57600080fd5b610205610bc6565b34156104dd57600080fd5b610385610be7565b34156104f057600080fd5b610205600160a060020a0360043516610bf6565b341561050f57600080fd5b6101b1610c0b565b341561052257600080fd5b6101b1610c17565b341561053557600080fd5b61022f600435610c1d565b341561054b57600080fd5b610190600160a060020a0360043516610c2b565b610190600160a060020a03600435166105b8565b341561057e57600080fd5b610190600160a060020a0360043516610c6a565b341561059d57600080fd5b6101b1610d05565b34156105b057600080fd5b610385610d14565b3460006105c58383610d23565b6105ce82610d56565b6003549091506105e4908363ffffffff610d6a16565b6003556105f18382610d80565b82600160a060020a031633600160a060020a03167f623b3804fa71d67900d064613da8f94b9617215ee90799290593e1745087ad18848460405191825260208201526040908101905180910390a36106498383610d8a565b610651610d8e565b61065b8383610d8a565b505050565b600a6020526000908152604090205481565b600080600554421015151561068657600080fd5b5060005b600b5481101561074457600b8054829081106106a257fe5b90600052602060002090600891828204019190066004029054906101000a900463ffffffff1663ffffffff166106e360055442610dc490919063ffffffff16565b1161073c57610735600c828154811015156106fa57fe5b90600052602060002090600891828204019190066004029054906101000a900463ffffffff1663ffffffff1684610dd690919063ffffffff16565b9150610749565b60010161068a565b600091505b50919050565b60008061076b61075e84610672565b859063ffffffff610dd616565b90506107a1670de0b6b3a764000061079561078861075e886109cc565b849063ffffffff610d6a16565b9063ffffffff610dd616565b91505b5092915050565b60065442115b90565b600d8054829081106107c257fe5b9060005260206000209060089182820401919006600402915054906101000a900463ffffffff1681565b60075460009033600160a060020a0390811691161461080a57600080fd5b815183511461081857600080fd5b5060005b82518160010110156108755782816001018151811061083757fe5b9060200190602002015163ffffffff1683828151811061085357fe5b9060200190602002015163ffffffff161061086d57600080fd5b60010161081c565b600b838051610888929160200190611003565b50600c82805161089c929160200190611003565b50505050565b600e8054829081106107c257fe5b600b5490565b60025481565b60045481565b60035481565b60065481565b60075433600160a060020a039081169116146108e957600080fd5b60075474010000000000000000000000000000000000000000900460ff161561091157600080fd5b6109196107ab565b151561092457600080fd5b61092c610e01565b7f6823b073d48d6e3a7d385eeb601452d680e74bb46afe3255a7d778f3a9b1768160405160405180910390a16007805474ff0000000000000000000000000000000000000000191674010000000000000000000000000000000000000000179055565b600454600354101590565b600154600160a060020a031681565b600d5490565b600b8054829081106107c257fe5b600954600160a060020a031681565b6000805b600d5481101561074457600d8054829081106109e857fe5b90600052602060002090600891828204019190066004029054906101000a900463ffffffff1663ffffffff1683101515610a5d57600e805482908110610a2a57fe5b90600052602060002090600891828204019190066004029054906101000a900463ffffffff1663ffffffff169150610749565b6001016109d0565b60075460009033600160a060020a03908116911614610a8357600080fd5b8151835114610a9157600080fd5b5060005b8251816001011015610aee57828160010181518110610ab057fe5b9060200190602002015163ffffffff16838281518110610acc57fe5b9060200190602002015163ffffffff1611610ae657600080fd5b600101610a95565b600d838051610b01929160200190611003565b50600e82805161089c929160200190611003565b60075433600160a060020a03908116911614610b3057600080fd5b600160a060020a03166000908152600860205260409020805460ff19169055565b60075460009033600160a060020a03908116911614610b6f57600080fd5b5060005b8181101561065b57600160086000858585818110610b8d57fe5b60209081029290920135600160a060020a0316835250810191909152604001600020805460ff1916911515919091179055600101610b73565b60075474010000000000000000000000000000000000000000900460ff1681565b600754600160a060020a031681565b60086020526000908152604090205460ff1681565b670de0b6b3a764000081565b60055481565b600c8054829081106107c257fe5b60075433600160a060020a03908116911614610c4657600080fd5b600160a060020a03166000908152600860205260409020805460ff19166001179055565b60075433600160a060020a03908116911614610c8557600080fd5b600160a060020a0381161515610c9a57600080fd5b600754600160a060020a0380831691167f8be0079c531659141344cd1fd0a4f28419497f9722a3daafe3b4186f6b6457e060405160405180910390a36007805473ffffffffffffffffffffffffffffffffffffffff1916600160a060020a0392909216919091179055565b6a52b7d2dcc80cd2e400000081565b600054600160a060020a031681565b600160a060020a038216600090815260086020526040902054829060ff161515610d4c57600080fd5b61065b8383610f06565b6000610d648260025461074f565b92915050565b600082820183811015610d7957fe5b9392505050565b610d8a8282610f2f565b5050565b600154600160a060020a03163480156108fc0290604051600060405180830381858888f193505050501515610dc257600080fd5b565b600082821115610dd057fe5b50900390565b600080831515610de957600091506107a4565b50828202828482811515610df957fe5b0414610d7957fe5b60008054600160a060020a03166318160ddd82604051602001526040518163ffffffff1660e060020a028152600401602060405180830381600087803b1515610e4957600080fd5b6102c65a03f11515610e5a57600080fd5b5050506040518051600954909250610e969150600160a060020a0316610e916a52b7d2dcc80cd2e40000008463ffffffff610dc416565b610d80565b60008054600160a060020a031690637d64bcb490604051602001526040518163ffffffff1660e060020a028152600401602060405180830381600087803b1515610edf57600080fd5b6102c65a03f11515610ef057600080fd5b5050506040518051905050610f03610dc2565b50565b6005544210158015610f1a57506006544211155b1515610f2557600080fd5b610d8a8282610fb7565b60008054600160a060020a0316906340c10f1990849084906040516020015260405160e060020a63ffffffff8516028152600160a060020a0390921660048301526024820152604401602060405180830381600087803b1515610f9157600080fd5b6102c65a03f11515610fa257600080fd5b505050604051805190501515610d8a57600080fd5b610fc18282610fe2565b600454600354610fd7908363ffffffff610d6a16565b1115610d8a57600080fd5b600160a060020a0382161515610ff757600080fd5b801515610d8a57600080fd5b828054828255906000526020600020906007016008900481019282156110a25791602002820160005b8382111561107057835183826101000a81548163ffffffff021916908363ffffffff160217905550926020019260040160208160030104928301926001030261102c565b80156110a05782816101000a81549063ffffffff0219169055600401602081600301049283019260010302611070565b505b506110ae9291506110b2565b5090565b6107b191905b808211156110ae57805463ffffffff191681556001016110b85600a165627a7a723058209bf02fdba314a4360efeadd950ffa7d45d68fb6e0659a3a12e8c327526c1cddb0029",
  "source": "pragma solidity ^0.4.11;\n\nimport \"zeppelin-solidity/contracts/crowdsale/validation/WhitelistedCrowdsale.sol\";\nimport \"zeppelin-solidity/contracts/crowdsale/distribution/FinalizableCrowdsale.sol\";\nimport \"zeppelin-solidity/contracts/crowdsale/validation/CappedCrowdsale.sol\";\nimport \"zeppelin-solidity/contracts/crowdsale/validation/TimedCrowdsale.sol\";\nimport \"zeppelin-solidity/contracts/crowdsale/emission/MintedCrowdsale.sol\";\n\n/**\n * @title DagtCrowdsale\n * @dev DAGT Token that can be minted.\n * It is meant to be used in a crowdsale contract.\n */\ncontract DagtCrowdsale is CappedCrowdsale, MintedCrowdsale, FinalizableCrowdsale, WhitelistedCrowdsale {\n    // Constants\n    // DAGT token unit.\n    // Using same decimal value as ETH (makes ETH-DAGT conversion much easier).\n    // This is the same as in DAGT token contract.\n    uint256 public constant TOKEN_UNIT = 10 ** 18;\n    // Maximum number of tokens in circulation\n    uint256 public constant MAX_TOKENS = 100000000 * TOKEN_UNIT;\n\n    // Variables\n    address public remainingTokensWallet;\n    mapping (address => uint) public beneficiaries;\n\n     // The following will be populated by main crowdsale contract\n    uint32[] public BONUS_TIMES;\n    uint32[] public BONUS_TIMES_VALUES;\n    uint32[] public BONUS_AMOUNTS;\n    uint32[] public BONUS_AMOUNTS_VALUES;\n\n    function DagtCrowdsale(uint256 _openingTime, uint256 _closingTime, uint256 _rate, address _wallet, address _remainingTokensWallet, uint256 _cap, MintableToken _token) public\n        Crowdsale(_rate, _wallet, _token)\n        CappedCrowdsale(_cap)\n        TimedCrowdsale(_openingTime, _closingTime)\n    {\n        require(_remainingTokensWallet != address(0));\n        remainingTokensWallet = _remainingTokensWallet;\n    }\n\n    /**\n    * @dev Override to extend the way in which ether is converted to tokens.\n    * @param _weiAmount Value in wei to be converted into tokens\n    * @return Number of tokens that can be purchased with the specified _weiAmount\n    */\n    function _getTokenAmount(uint256 _weiAmount) internal view returns (uint256) {\n        return computeTokens(_weiAmount,rate);\n    }\n\n    /**\n    * @dev Can be overridden to add finalization logic. The overriding function\n    * should call super.finalization() to ensure the chain of finalization is\n    * executed entirely.\n    */\n    function finalization() internal {\n        \n        //DAGT gets 20% of the amount of the total token supply\n        uint256 totalSupply = token.totalSupply();\n        // total remaining Tokens\n        _processPurchase(remainingTokensWallet, MAX_TOKENS.sub(totalSupply));\n\n        MintableToken(token).finishMinting();\n\n        super.finalization();\n    }\n\n    /**\n    * @dev Computes overall bonus based on time of contribution and amount of contribution. \n    * The total bonus is the sum of bonus by time and bonus by amount\n    * @return tokens \n    */\n    function computeTokens(uint256 ethValue,uint256 rate) public constant returns(uint256) {\n        uint256 tokens = ethValue.mul(computeTimeBonus(rate));\n        return tokens.add(tokens.mul(computeAmountBonus(ethValue))).mul(1 ether);\n    }\n\n    /**\n    * @dev Computes bonus based on time of contribution relative to the beginning of crowdsale\n    * @return bonus \n    */\n    function computeTimeBonus(uint256 rate) public constant returns(uint256) {\n        require(now >= openingTime);\n\n        for (uint i = 0; i < BONUS_TIMES.length; i++) {\n            if (now.sub(openingTime) <= BONUS_TIMES[i]) {\n                return rate.mul(uint256(BONUS_TIMES_VALUES[i]));\n            }\n        }\n        return 0;\n    }\n\n    /**\n    * @dev Computes bonus based on amount of contribution\n    * @return bonus \n    */\n    function computeAmountBonus(uint256 ethValue) public constant returns(uint256) {\n        for (uint i = 0; i < BONUS_AMOUNTS.length; i++) {\n            if (ethValue >= BONUS_AMOUNTS[i]) {\n                return BONUS_AMOUNTS_VALUES[i];\n            }\n        }\n        return 0;\n    }\n      /**\n    * @dev Retrieve length of bonuses by time array\n    * @return Bonuses by time array length\n    */\n    function bonusesForTimesCount() public constant returns(uint) {\n        return BONUS_TIMES.length;\n    }\n\n    /**\n    * @dev Sets bonuses for time\n    */\n    function setBonusesForTimes(uint32[] times, uint32[] values) public onlyOwner {\n        require(times.length == values.length);\n        for (uint i = 0; i + 1 < times.length; i++) {\n            require(times[i] < times[i+1]);\n        }\n\n        BONUS_TIMES = times;\n        BONUS_TIMES_VALUES = values;\n    }\n\n    /**\n    * @dev Retrieve length of bonuses by amounts array\n    * @return Bonuses by amounts array length\n    */\n    function bonusesForAmountsCount() public constant returns(uint) {\n        return BONUS_AMOUNTS.length;\n    }\n\n    /**\n    * @dev Sets bonuses for USD amounts\n    */\n    function setBonusesForAmounts(uint32[] amounts, uint32[] values) public onlyOwner {\n        require(amounts.length == values.length);\n        for (uint i = 0; i + 1 < amounts.length; i++) {\n            require(amounts[i] > amounts[i+1]);\n        }\n\n        BONUS_AMOUNTS = amounts;\n        BONUS_AMOUNTS_VALUES = values;\n    }\n\n}\n",
  "sourcePath": "/Users/leo/Projects/github/dagt/contracts/DagtCrowdsale.sol",
  "compiler": {
    "name": "solc",
    "version": "0.4.19+commit.c4cbbb05.Emscripten.clang"
  },
  "schemaVersion": "2.0.0",
  "updatedAt": "2018-03-21T08:27:42.053Z"
}